{
  "_format": "hh-sol-artifact-1",
  "contractName": "MarketPlace",
  "sourceName": "contracts/MarKetPlace.sol",
  "abi": [
    {
      "anonymous": false,
      "inputs": [
        {
          "indexed": true,
          "internalType": "address",
          "name": "from",
          "type": "address"
        },
        {
          "indexed": true,
          "internalType": "address",
          "name": "to",
          "type": "address"
        },
        {
          "indexed": false,
          "internalType": "uint256",
          "name": "amount",
          "type": "uint256"
        }
      ],
      "name": "Withdrawal",
      "type": "event"
    },
    {
      "inputs": [
        {
          "internalType": "uint256",
          "name": "",
          "type": "uint256"
        }
      ],
      "name": "apartments",
      "outputs": [
        {
          "internalType": "address payable",
          "name": "owner",
          "type": "address"
        },
        {
          "internalType": "string",
          "name": "name",
          "type": "string"
        },
        {
          "internalType": "string",
          "name": "title",
          "type": "string"
        },
        {
          "internalType": "string",
          "name": "description",
          "type": "string"
        },
        {
          "internalType": "uint256",
          "name": "deadline",
          "type": "uint256"
        },
        {
          "internalType": "uint256",
          "name": "amountappartment",
          "type": "uint256"
        },
        {
          "internalType": "string",
          "name": "image",
          "type": "string"
        },
        {
          "internalType": "address",
          "name": "senderappartment",
          "type": "address"
        }
      ],
      "stateMutability": "view",
      "type": "function"
    },
    {
      "inputs": [
        {
          "internalType": "address",
          "name": "",
          "type": "address"
        }
      ],
      "name": "balances",
      "outputs": [
        {
          "internalType": "uint256",
          "name": "",
          "type": "uint256"
        }
      ],
      "stateMutability": "view",
      "type": "function"
    },
    {
      "inputs": [
        {
          "internalType": "address payable",
          "name": "_owner",
          "type": "address"
        },
        {
          "internalType": "string",
          "name": "_title",
          "type": "string"
        },
        {
          "internalType": "string",
          "name": "_name",
          "type": "string"
        },
        {
          "internalType": "string",
          "name": "_description",
          "type": "string"
        },
        {
          "internalType": "uint256",
          "name": "_amountappartment",
          "type": "uint256"
        },
        {
          "internalType": "uint256",
          "name": "_deadline",
          "type": "uint256"
        },
        {
          "internalType": "string",
          "name": "_image",
          "type": "string"
        }
      ],
      "name": "createApartment",
      "outputs": [
        {
          "internalType": "uint256",
          "name": "",
          "type": "uint256"
        }
      ],
      "stateMutability": "nonpayable",
      "type": "function"
    },
    {
      "inputs": [],
      "name": "deposit",
      "outputs": [],
      "stateMutability": "payable",
      "type": "function"
    },
    {
      "inputs": [],
      "name": "getApartments",
      "outputs": [
        {
          "components": [
            {
              "internalType": "address payable",
              "name": "owner",
              "type": "address"
            },
            {
              "internalType": "string",
              "name": "name",
              "type": "string"
            },
            {
              "internalType": "string",
              "name": "title",
              "type": "string"
            },
            {
              "internalType": "string",
              "name": "description",
              "type": "string"
            },
            {
              "internalType": "uint256",
              "name": "deadline",
              "type": "uint256"
            },
            {
              "internalType": "uint256",
              "name": "amountappartment",
              "type": "uint256"
            },
            {
              "internalType": "string",
              "name": "image",
              "type": "string"
            },
            {
              "internalType": "address",
              "name": "senderappartment",
              "type": "address"
            },
            {
              "internalType": "uint256[]",
              "name": "senderamount",
              "type": "uint256[]"
            }
          ],
          "internalType": "struct MarketPlace.Apartment[]",
          "name": "",
          "type": "tuple[]"
        }
      ],
      "stateMutability": "view",
      "type": "function"
    },
    {
      "inputs": [],
      "name": "numberOfApartments",
      "outputs": [
        {
          "internalType": "uint256",
          "name": "",
          "type": "uint256"
        }
      ],
      "stateMutability": "view",
      "type": "function"
    },
    {
      "inputs": [
        {
          "internalType": "uint256",
          "name": "_id",
          "type": "uint256"
        }
      ],
      "name": "withdraw",
      "outputs": [],
      "stateMutability": "nonpayable",
      "type": "function"
    }
  ],
  "bytecode": "0x6080604052600060025534801561001557600080fd5b50610f5a806100256000396000f3fe6080604052600436106100705760003560e01c8063abb8be171161004e578063abb8be17146100f7578063af684dd41461012b578063b1c9809914610141578063d0e30db01461016357600080fd5b806327e235e3146100755780632bcc8553146100b55780632e1a7d4d146100d5575b600080fd5b34801561008157600080fd5b506100a2610090366004610a8a565b60016020526000908152604090205481565b6040519081526020015b60405180910390f35b3480156100c157600080fd5b506100a26100d0366004610b61565b61016b565b3480156100e157600080fd5b506100f56100f0366004610c32565b610297565b005b34801561010357600080fd5b50610117610112366004610c32565b610346565b6040516100ac989796959493929190610c98565b34801561013757600080fd5b506100a260025481565b34801561014d57600080fd5b506101566105ba565b6040516100ac9190610d5a565b6100f56109a6565b6002546000908152602081905260408120600481015442116101e75760405162461bcd60e51b815260206004820152602b60248201527f74686520646561646c696e652073686f756c642062652061206461746520696e60448201526a207468652066757475726560a81b606482015260840160405180910390fd5b80546001600160a01b0319166001600160a01b038a16178155875161021590600283019060208b01906109d9565b50865161022b90600183019060208a01906109d9565b50855161024190600383019060208901906109d9565b506004810184905560058101859055825161026590600683019060208601906109d9565b506002805490600061027683610e8f565b9190505550600160025461028a9190610eaa565b9998505050505050505050565b60008181526020819052604080822080546005820154925191936001600160a01b039091169280156108fc02929091818181858888f193505050501580156102e3573d6000803e3d6000fd5b506007810180546001600160a01b03191633908117909155815460058301546040519081526001600160a01b0390911691907f2717ead6b9200dd235aad468c9809ea400fe33ac69b5bfaa6d3e90fc922b63989060200160405180910390a35050565b600060208190529081526040902080546001820180546001600160a01b03909216929161037290610ec1565b80601f016020809104026020016040519081016040528092919081815260200182805461039e90610ec1565b80156103eb5780601f106103c0576101008083540402835291602001916103eb565b820191906000526020600020905b8154815290600101906020018083116103ce57829003601f168201915b50505050509080600201805461040090610ec1565b80601f016020809104026020016040519081016040528092919081815260200182805461042c90610ec1565b80156104795780601f1061044e57610100808354040283529160200191610479565b820191906000526020600020905b81548152906001019060200180831161045c57829003601f168201915b50505050509080600301805461048e90610ec1565b80601f01602080910402602001604051908101604052809291908181526020018280546104ba90610ec1565b80156105075780601f106104dc57610100808354040283529160200191610507565b820191906000526020600020905b8154815290600101906020018083116104ea57829003601f168201915b50505050509080600401549080600501549080600601805461052890610ec1565b80601f016020809104026020016040519081016040528092919081815260200182805461055490610ec1565b80156105a15780601f10610576576101008083540402835291602001916105a1565b820191906000526020600020905b81548152906001019060200180831161058457829003601f168201915b505050600790930154919250506001600160a01b031688565b6060600060025467ffffffffffffffff8111156105d9576105d9610abe565b60405190808252806020026020018201604052801561066b57816020015b61065860405180610120016040528060006001600160a01b0316815260200160608152602001606081526020016060815260200160008152602001600081526020016060815260200160006001600160a01b03168152602001606081525090565b8152602001906001900390816105f75790505b50905060005b6002548110156109a057600081815260208181526040918290208251610120810190935280546001600160a01b03168352600181018054919392849290840191906106bb90610ec1565b80601f01602080910402602001604051908101604052809291908181526020018280546106e790610ec1565b80156107345780601f1061070957610100808354040283529160200191610734565b820191906000526020600020905b81548152906001019060200180831161071757829003601f168201915b5050505050815260200160028201805461074d90610ec1565b80601f016020809104026020016040519081016040528092919081815260200182805461077990610ec1565b80156107c65780601f1061079b576101008083540402835291602001916107c6565b820191906000526020600020905b8154815290600101906020018083116107a957829003601f168201915b505050505081526020016003820180546107df90610ec1565b80601f016020809104026020016040519081016040528092919081815260200182805461080b90610ec1565b80156108585780601f1061082d57610100808354040283529160200191610858565b820191906000526020600020905b81548152906001019060200180831161083b57829003601f168201915b50505050508152602001600482015481526020016005820154815260200160068201805461088590610ec1565b80601f01602080910402602001604051908101604052809291908181526020018280546108b190610ec1565b80156108fe5780601f106108d3576101008083540402835291602001916108fe565b820191906000526020600020905b8154815290600101906020018083116108e157829003601f168201915b505050918352505060078201546001600160a01b0316602080830191909152600883018054604080518285028101850182528281529401939283018282801561096657602002820191906000526020600020905b815481526020019060010190808311610952575b50505050508152505083838151811061098157610981610ef6565b602002602001018190525050808061099890610e8f565b915050610671565b50919050565b600034116109b357600080fd5b33600090815260016020526040812080543492906109d2908490610f0c565b9091555050565b8280546109e590610ec1565b90600052602060002090601f016020900481019282610a075760008555610a4d565b82601f10610a2057805160ff1916838001178555610a4d565b82800160010185558215610a4d579182015b82811115610a4d578251825591602001919060010190610a32565b50610a59929150610a5d565b5090565b5b80821115610a595760008155600101610a5e565b6001600160a01b0381168114610a8757600080fd5b50565b600060208284031215610a9c57600080fd5b8135610aa781610a72565b9392505050565b8035610ab981610a72565b919050565b634e487b7160e01b600052604160045260246000fd5b600082601f830112610ae557600080fd5b813567ffffffffffffffff80821115610b0057610b00610abe565b604051601f8301601f19908116603f01168101908282118183101715610b2857610b28610abe565b81604052838152866020858801011115610b4157600080fd5b836020870160208301376000602085830101528094505050505092915050565b600080600080600080600060e0888a031215610b7c57600080fd5b610b8588610aae565b9650602088013567ffffffffffffffff80821115610ba257600080fd5b610bae8b838c01610ad4565b975060408a0135915080821115610bc457600080fd5b610bd08b838c01610ad4565b965060608a0135915080821115610be657600080fd5b610bf28b838c01610ad4565b955060808a0135945060a08a0135935060c08a0135915080821115610c1657600080fd5b50610c238a828b01610ad4565b91505092959891949750929550565b600060208284031215610c4457600080fd5b5035919050565b6000815180845260005b81811015610c7157602081850181015186830182015201610c55565b81811115610c83576000602083870101525b50601f01601f19169290920160200192915050565b6001600160a01b03898116825261010060208301819052600091610cbe8483018c610c4b565b91508382036040850152610cd2828b610c4b565b91508382036060850152610ce6828a610c4b565b91508760808501528660a085015283820360c0850152610d068287610c4b565b925080851660e085015250509998505050505050505050565b600081518084526020808501945080840160005b83811015610d4f57815187529582019590820190600101610d33565b509495945050505050565b60006020808301818452808551808352604092508286019150828160051b87010184880160005b83811015610e6b57888303603f19018552815180516001600160a01b0316845261012088820151818a870152610db982870182610c4b565b9150508782015185820389870152610dd18282610c4b565b91505060608083015186830382880152610deb8382610c4b565b92505050608080830151818701525060a080830151818701525060c08083015186830382880152610e1c8382610c4b565b9250505060e080830151610e3a828801826001600160a01b03169052565b50506101008083015192508582038187015250610e578183610d1f565b968901969450505090860190600101610d81565b509098975050505050505050565b634e487b7160e01b600052601160045260246000fd5b6000600019821415610ea357610ea3610e79565b5060010190565b600082821015610ebc57610ebc610e79565b500390565b600181811c90821680610ed557607f821691505b602082108114156109a057634e487b7160e01b600052602260045260246000fd5b634e487b7160e01b600052603260045260246000fd5b60008219821115610f1f57610f1f610e79565b50019056fea26469706673582212201966415bfce4407978c055b9ed38d9d1fa0adacf5fc90bd02415ddc3641b0b9e64736f6c63430008090033",
  "linkReferences": {},
  "deployedLinkReferences": {}
}