{
  "_format": "hh-sol-artifact-1",
  "contractName": "MarketPlace",
  "sourceName": "contracts/MarketPlace.sol",
  "abi": [
    {
      "inputs": [
        {
          "internalType": "uint256",
          "name": "",
          "type": "uint256"
        }
      ],
      "name": "apartments",
      "outputs": [
        {
          "internalType": "address",
          "name": "owner",
          "type": "address"
        },
        {
          "internalType": "string",
          "name": "title",
          "type": "string"
        },
        {
          "internalType": "string",
          "name": "description",
          "type": "string"
        },
        {
          "internalType": "uint256",
          "name": "target",
          "type": "uint256"
        },
        {
          "internalType": "uint256",
          "name": "deadline",
          "type": "uint256"
        },
        {
          "internalType": "uint256",
          "name": "amountappartment",
          "type": "uint256"
        },
        {
          "internalType": "string",
          "name": "image",
          "type": "string"
        }
      ],
      "stateMutability": "view",
      "type": "function"
    },
    {
      "inputs": [
        {
          "internalType": "address",
          "name": "_owner",
          "type": "address"
        },
        {
          "internalType": "string",
          "name": "_title",
          "type": "string"
        },
        {
          "internalType": "string",
          "name": "_description",
          "type": "string"
        },
        {
          "internalType": "uint256",
          "name": "_target",
          "type": "uint256"
        },
        {
          "internalType": "uint256",
          "name": "_deadline",
          "type": "uint256"
        },
        {
          "internalType": "string",
          "name": "_image",
          "type": "string"
        }
      ],
      "name": "createApartment",
      "outputs": [
        {
          "internalType": "uint256",
          "name": "",
          "type": "uint256"
        }
      ],
      "stateMutability": "nonpayable",
      "type": "function"
    },
    {
      "inputs": [],
      "name": "getApartments",
      "outputs": [
        {
          "components": [
            {
              "internalType": "address",
              "name": "owner",
              "type": "address"
            },
            {
              "internalType": "string",
              "name": "title",
              "type": "string"
            },
            {
              "internalType": "string",
              "name": "description",
              "type": "string"
            },
            {
              "internalType": "uint256",
              "name": "target",
              "type": "uint256"
            },
            {
              "internalType": "uint256",
              "name": "deadline",
              "type": "uint256"
            },
            {
              "internalType": "uint256",
              "name": "amountappartment",
              "type": "uint256"
            },
            {
              "internalType": "string",
              "name": "image",
              "type": "string"
            },
            {
              "internalType": "address[]",
              "name": "senders",
              "type": "address[]"
            },
            {
              "internalType": "uint256[]",
              "name": "senderamount",
              "type": "uint256[]"
            }
          ],
          "internalType": "struct MarketPlace.Apartment[]",
          "name": "",
          "type": "tuple[]"
        }
      ],
      "stateMutability": "view",
      "type": "function"
    },
    {
      "inputs": [
        {
          "internalType": "uint256",
          "name": "_id",
          "type": "uint256"
        }
      ],
      "name": "getSender",
      "outputs": [
        {
          "internalType": "address[]",
          "name": "",
          "type": "address[]"
        },
        {
          "internalType": "uint256[]",
          "name": "",
          "type": "uint256[]"
        }
      ],
      "stateMutability": "view",
      "type": "function"
    },
    {
      "inputs": [],
      "name": "numberOfApartments",
      "outputs": [
        {
          "internalType": "uint256",
          "name": "",
          "type": "uint256"
        }
      ],
      "stateMutability": "view",
      "type": "function"
    },
    {
      "inputs": [
        {
          "internalType": "uint256",
          "name": "_id",
          "type": "uint256"
        }
      ],
      "name": "sellApartment",
      "outputs": [],
      "stateMutability": "payable",
      "type": "function"
    }
  ],
  "bytecode": "0x6080604052600060015534801561001557600080fd5b50610f0a806100256000396000f3fe6080604052600436106100555760003560e01c8063abb8be171461005a578063af684dd414610096578063b1c98099146100ba578063b971302a146100dc578063c0936a191461010a578063d6aa512f1461012a575b600080fd5b34801561006657600080fd5b5061007a6100753660046109f8565b61013f565b60405161008d9796959493929190610a5e565b60405180910390f35b3480156100a257600080fd5b506100ac60015481565b60405190815260200161008d565b3480156100c657600080fd5b506100cf61031c565b60405161008d9190610b3c565b3480156100e857600080fd5b506100fc6100f73660046109f8565b6106c9565b60405161008d929190610c49565b34801561011657600080fd5b506100ac610125366004610d70565b610798565b61013d6101383660046109f8565b61089d565b005b600060208190529081526040902080546001820180546001600160a01b03909216929161016b90610e29565b80601f016020809104026020016040519081016040528092919081815260200182805461019790610e29565b80156101e45780601f106101b9576101008083540402835291602001916101e4565b820191906000526020600020905b8154815290600101906020018083116101c757829003601f168201915b5050505050908060020180546101f990610e29565b80601f016020809104026020016040519081016040528092919081815260200182805461022590610e29565b80156102725780601f1061024757610100808354040283529160200191610272565b820191906000526020600020905b81548152906001019060200180831161025557829003601f168201915b50505050509080600301549080600401549080600501549080600601805461029990610e29565b80601f01602080910402602001604051908101604052809291908181526020018280546102c590610e29565b80156103125780601f106102e757610100808354040283529160200191610312565b820191906000526020600020905b8154815290600101906020018083116102f557829003601f168201915b5050505050905087565b6060600060015467ffffffffffffffff81111561033b5761033b610ccd565b6040519080825280602002602001820160405280156103c457816020015b6103b160405180610120016040528060006001600160a01b0316815260200160608152602001606081526020016000815260200160008152602001600081526020016060815260200160608152602001606081525090565b8152602001906001900390816103595790505b50905060005b6001548110156106c357600081815260208181526040918290208251610120810190935280546001600160a01b031683526001810180549193928492908401919061041490610e29565b80601f016020809104026020016040519081016040528092919081815260200182805461044090610e29565b801561048d5780601f106104625761010080835404028352916020019161048d565b820191906000526020600020905b81548152906001019060200180831161047057829003601f168201915b505050505081526020016002820180546104a690610e29565b80601f01602080910402602001604051908101604052809291908181526020018280546104d290610e29565b801561051f5780601f106104f45761010080835404028352916020019161051f565b820191906000526020600020905b81548152906001019060200180831161050257829003601f168201915b5050505050815260200160038201548152602001600482015481526020016005820154815260200160068201805461055690610e29565b80601f016020809104026020016040519081016040528092919081815260200182805461058290610e29565b80156105cf5780601f106105a4576101008083540402835291602001916105cf565b820191906000526020600020905b8154815290600101906020018083116105b257829003601f168201915b505050505081526020016007820180548060200260200160405190810160405280929190818152602001828054801561063157602002820191906000526020600020905b81546001600160a01b03168152600190910190602001808311610613575b505050505081526020016008820180548060200260200160405190810160405280929190818152602001828054801561068957602002820191906000526020600020905b815481526020019060010190808311610675575b5050505050815250508383815181106106a4576106a4610e5e565b60200260200101819052505080806106bb90610e8a565b9150506103ca565b50919050565b6000818152602081815260409182902060078101805484518185028101850190955280855260609485949293600801929091849183018282801561073657602002820191906000526020600020905b81546001600160a01b03168152600190910190602001808311610718575b505050505091508080548060200260200160405190810160405280929190818152602001828054801561078857602002820191906000526020600020905b815481526020019060010190808311610774575b5050505050905091509150915091565b6001546000908152602081905260408120600481015442116108145760405162461bcd60e51b815260206004820152602b60248201527f74686520646561646c696e652073686f756c642062652061206461746520696e60448201526a207468652066757475726560a81b606482015260840160405180910390fd5b80546001600160a01b0319166001600160a01b038916178155865161084290600183019060208a019061095f565b508551610858906002830190602089019061095f565b506003810185905560048101849055600060058201819055600180549161087e83610e8a565b9190505550600180546108919190610ea5565b98975050505050505050565b600081815260208181526040808320600781018054600180820183559186528486200180546001600160a01b0319163317905560088201805491820181558552928420349301839055805491519293909290916001600160a01b03169084908381818185875af1925050503d8060008114610934576040519150601f19603f3d011682016040523d82523d6000602084013e610939565b606091505b505090508015610959578282600501546109539190610ebc565b60058301555b50505050565b82805461096b90610e29565b90600052602060002090601f01602090048101928261098d57600085556109d3565b82601f106109a657805160ff19168380011785556109d3565b828001600101855582156109d3579182015b828111156109d35782518255916020019190600101906109b8565b506109df9291506109e3565b5090565b5b808211156109df57600081556001016109e4565b600060208284031215610a0a57600080fd5b5035919050565b6000815180845260005b81811015610a3757602081850181015186830182015201610a1b565b81811115610a49576000602083870101525b50601f01601f19169290920160200192915050565b6001600160a01b038816815260e060208201819052600090610a8290830189610a11565b8281036040840152610a948189610a11565b90508660608401528560808401528460a084015282810360c0840152610aba8185610a11565b9a9950505050505050505050565b600081518084526020808501945080840160005b83811015610b015781516001600160a01b031687529582019590820190600101610adc565b509495945050505050565b600081518084526020808501945080840160005b83811015610b0157815187529582019590820190600101610b20565b60006020808301818452808551808352604092508286019150828160051b87010184880160005b83811015610c3b57888303603f19018552815180516001600160a01b0316845261012088820151818a870152610b9b82870182610a11565b9150508782015185820389870152610bb38282610a11565b606084810151908801526080808501519088015260a0808501519088015260c080850151888303828a01529193509150610bed8382610a11565b9250505060e08083015186830382880152610c088382610ac8565b925050506101008083015192508582038187015250610c278183610b0c565b968901969450505090860190600101610b63565b509098975050505050505050565b604080825283519082018190526000906020906060840190828701845b82811015610c8b5781516001600160a01b031684529284019290840190600101610c66565b5050508381038285015284518082528583019183019060005b81811015610cc057835183529284019291840191600101610ca4565b5090979650505050505050565b634e487b7160e01b600052604160045260246000fd5b600082601f830112610cf457600080fd5b813567ffffffffffffffff80821115610d0f57610d0f610ccd565b604051601f8301601f19908116603f01168101908282118183101715610d3757610d37610ccd565b81604052838152866020858801011115610d5057600080fd5b836020870160208301376000602085830101528094505050505092915050565b60008060008060008060c08789031215610d8957600080fd5b86356001600160a01b0381168114610da057600080fd5b9550602087013567ffffffffffffffff80821115610dbd57600080fd5b610dc98a838b01610ce3565b96506040890135915080821115610ddf57600080fd5b610deb8a838b01610ce3565b9550606089013594506080890135935060a0890135915080821115610e0f57600080fd5b50610e1c89828a01610ce3565b9150509295509295509295565b600181811c90821680610e3d57607f821691505b602082108114156106c357634e487b7160e01b600052602260045260246000fd5b634e487b7160e01b600052603260045260246000fd5b634e487b7160e01b600052601160045260246000fd5b6000600019821415610e9e57610e9e610e74565b5060010190565b600082821015610eb757610eb7610e74565b500390565b60008219821115610ecf57610ecf610e74565b50019056fea2646970667358221220a0cca74b8813ba82663dc7b1ecb7470d444757f2c592333de63adf9d3aa06e4b64736f6c63430008090033",
  "linkReferences": {},
  "deployedLinkReferences": {}
}