{
  "contractName": "MarketPlace",
  "abi": [
    {
      "inputs": [
        {
          "internalType": "uint256",
          "name": "",
          "type": "uint256"
        }
      ],
      "name": "apartments",
      "outputs": [
        {
          "internalType": "address",
          "name": "owner",
          "type": "address"
        },
        {
          "internalType": "string",
          "name": "name",
          "type": "string"
        },
        {
          "internalType": "string",
          "name": "title",
          "type": "string"
        },
        {
          "internalType": "string",
          "name": "description",
          "type": "string"
        },
        {
          "internalType": "uint256",
          "name": "target",
          "type": "uint256"
        },
        {
          "internalType": "uint256",
          "name": "deadline",
          "type": "uint256"
        },
        {
          "internalType": "uint256",
          "name": "amountappartment",
          "type": "uint256"
        },
        {
          "internalType": "string",
          "name": "image",
          "type": "string"
        }
      ],
      "stateMutability": "view",
      "type": "function"
    },
    {
      "inputs": [],
      "name": "numberOfApartments",
      "outputs": [
        {
          "internalType": "uint256",
          "name": "",
          "type": "uint256"
        }
      ],
      "stateMutability": "view",
      "type": "function"
    },
    {
      "inputs": [
        {
          "internalType": "address",
          "name": "_owner",
          "type": "address"
        },
        {
          "internalType": "string",
          "name": "_title",
          "type": "string"
        },
        {
          "internalType": "string",
          "name": "_name",
          "type": "string"
        },
        {
          "internalType": "string",
          "name": "_description",
          "type": "string"
        },
        {
          "internalType": "uint256",
          "name": "_target",
          "type": "uint256"
        },
        {
          "internalType": "uint256",
          "name": "_deadline",
          "type": "uint256"
        },
        {
          "internalType": "string",
          "name": "_image",
          "type": "string"
        }
      ],
      "name": "createApartment",
      "outputs": [
        {
          "internalType": "uint256",
          "name": "",
          "type": "uint256"
        }
      ],
      "stateMutability": "nonpayable",
      "type": "function"
    },
    {
      "inputs": [
        {
          "internalType": "uint256",
          "name": "_id",
          "type": "uint256"
        }
      ],
      "name": "sellApartment",
      "outputs": [],
      "stateMutability": "payable",
      "type": "function"
    },
    {
      "inputs": [
        {
          "internalType": "uint256",
          "name": "_id",
          "type": "uint256"
        }
      ],
      "name": "getSender",
      "outputs": [
        {
          "internalType": "address[]",
          "name": "",
          "type": "address[]"
        },
        {
          "internalType": "uint256[]",
          "name": "",
          "type": "uint256[]"
        }
      ],
      "stateMutability": "view",
      "type": "function"
    },
    {
      "inputs": [],
      "name": "getApartments",
      "outputs": [
        {
          "components": [
            {
              "internalType": "address",
              "name": "owner",
              "type": "address"
            },
            {
              "internalType": "string",
              "name": "name",
              "type": "string"
            },
            {
              "internalType": "string",
              "name": "title",
              "type": "string"
            },
            {
              "internalType": "string",
              "name": "description",
              "type": "string"
            },
            {
              "internalType": "uint256",
              "name": "target",
              "type": "uint256"
            },
            {
              "internalType": "uint256",
              "name": "deadline",
              "type": "uint256"
            },
            {
              "internalType": "uint256",
              "name": "amountappartment",
              "type": "uint256"
            },
            {
              "internalType": "string",
              "name": "image",
              "type": "string"
            },
            {
              "internalType": "address[]",
              "name": "senderappartment",
              "type": "address[]"
            },
            {
              "internalType": "uint256[]",
              "name": "senderamount",
              "type": "uint256[]"
            }
          ],
          "internalType": "struct MarketPlace.Apartment[]",
          "name": "",
          "type": "tuple[]"
        }
      ],
      "stateMutability": "view",
      "type": "function"
    }
  ],
  "bytecode": "0x6080604052600060015534801561001557600080fd5b50611937806100256000396000f3fe6080604052600436106100555760003560e01c80632bcc85531461005a578063abb8be1714610097578063af684dd4146100db578063b1c9809914610106578063b971302a14610131578063d6aa512f1461016f575b600080fd5b34801561006657600080fd5b50610081600480360381019061007c9190610f41565b61018b565b60405161008e9190611062565b60405180910390f35b3480156100a357600080fd5b506100be60048036038101906100b9919061107d565b6102e1565b6040516100d2989796959493929190611141565b60405180910390f35b3480156100e757600080fd5b506100f0610569565b6040516100fd9190611062565b60405180910390f35b34801561011257600080fd5b5061011b61056f565b6040516101289190611560565b60405180910390f35b34801561013d57600080fd5b506101586004803603810190610153919061107d565b6109d7565b604051610166929190611660565b60405180910390f35b6101896004803603810190610184919061107d565b610ae7565b005b60008060008060015481526020019081526020016000209050428160050154106101ea576040517f08c379a00000000000000000000000000000000000000000000000000000000081526004016101e190611709565b60405180910390fd5b888160000160006101000a81548173ffffffffffffffffffffffffffffffffffffffff021916908373ffffffffffffffffffffffffffffffffffffffff16021790555087816002019080519060200190610245929190610c47565b508681600101908051906020019061025e929190610c47565b5085816003019080519060200190610277929190610c47565b5084816004018190555083816005018190555060008160060181905550828160070190805190602001906102ac929190610c47565b50600160008154809291906102c090611758565b9190505550600180546102d391906117a1565b915050979650505050505050565b60006020528060005260406000206000915090508060000160009054906101000a900473ffffffffffffffffffffffffffffffffffffffff169080600101805461032a90611804565b80601f016020809104026020016040519081016040528092919081815260200182805461035690611804565b80156103a35780601f10610378576101008083540402835291602001916103a3565b820191906000526020600020905b81548152906001019060200180831161038657829003601f168201915b5050505050908060020180546103b890611804565b80601f01602080910402602001604051908101604052809291908181526020018280546103e490611804565b80156104315780601f1061040657610100808354040283529160200191610431565b820191906000526020600020905b81548152906001019060200180831161041457829003601f168201915b50505050509080600301805461044690611804565b80601f016020809104026020016040519081016040528092919081815260200182805461047290611804565b80156104bf5780601f10610494576101008083540402835291602001916104bf565b820191906000526020600020905b8154815290600101906020018083116104a257829003601f168201915b5050505050908060040154908060050154908060060154908060070180546104e690611804565b80601f016020809104026020016040519081016040528092919081815260200182805461051290611804565b801561055f5780601f106105345761010080835404028352916020019161055f565b820191906000526020600020905b81548152906001019060200180831161054257829003601f168201915b5050505050905088565b60015481565b6060600060015467ffffffffffffffff81111561058f5761058e610de0565b5b6040519080825280602002602001820160405280156105c857816020015b6105b5610ccd565b8152602001906001900390816105ad5790505b50905060005b6001548110156109cf576000806000838152602001908152602001600020905080604051806101400160405290816000820160009054906101000a900473ffffffffffffffffffffffffffffffffffffffff1673ffffffffffffffffffffffffffffffffffffffff1673ffffffffffffffffffffffffffffffffffffffff16815260200160018201805461066190611804565b80601f016020809104026020016040519081016040528092919081815260200182805461068d90611804565b80156106da5780601f106106af576101008083540402835291602001916106da565b820191906000526020600020905b8154815290600101906020018083116106bd57829003601f168201915b505050505081526020016002820180546106f390611804565b80601f016020809104026020016040519081016040528092919081815260200182805461071f90611804565b801561076c5780601f106107415761010080835404028352916020019161076c565b820191906000526020600020905b81548152906001019060200180831161074f57829003601f168201915b5050505050815260200160038201805461078590611804565b80601f01602080910402602001604051908101604052809291908181526020018280546107b190611804565b80156107fe5780601f106107d3576101008083540402835291602001916107fe565b820191906000526020600020905b8154815290600101906020018083116107e157829003601f168201915b5050505050815260200160048201548152602001600582015481526020016006820154815260200160078201805461083590611804565b80601f016020809104026020016040519081016040528092919081815260200182805461086190611804565b80156108ae5780601f10610883576101008083540402835291602001916108ae565b820191906000526020600020905b81548152906001019060200180831161089157829003601f168201915b505050505081526020016008820180548060200260200160405190810160405280929190818152602001828054801561093c57602002820191906000526020600020905b8160009054906101000a900473ffffffffffffffffffffffffffffffffffffffff1673ffffffffffffffffffffffffffffffffffffffff16815260200190600101908083116108f2575b505050505081526020016009820180548060200260200160405190810160405280929190818152602001828054801561099457602002820191906000526020600020905b815481526020019060010190808311610980575b5050505050815250508383815181106109b0576109af611836565b5b60200260200101819052505080806109c790611758565b9150506105ce565b508091505090565b60608060008084815260200190815260200160002060080160008085815260200190815260200160002060090181805480602002602001604051908101604052809291908181526020018280548015610a8557602002820191906000526020600020905b8160009054906101000a900473ffffffffffffffffffffffffffffffffffffffff1673ffffffffffffffffffffffffffffffffffffffff1681526020019060010190808311610a3b575b5050505050915080805480602002602001604051908101604052809291908181526020018280548015610ad757602002820191906000526020600020905b815481526020019060010190808311610ac3575b5050505050905091509150915091565b60003490506000806000848152602001908152602001600020905080600801339080600181540180825580915050600190039060005260206000200160009091909190916101000a81548173ffffffffffffffffffffffffffffffffffffffff021916908373ffffffffffffffffffffffffffffffffffffffff1602179055508060090182908060018154018082558091505060019003906000526020600020016000909190919091505560008160000160009054906101000a900473ffffffffffffffffffffffffffffffffffffffff1673ffffffffffffffffffffffffffffffffffffffff1683604051610bdc90611896565b60006040518083038185875af1925050503d8060008114610c19576040519150601f19603f3d011682016040523d82523d6000602084013e610c1e565b606091505b505090508015610c4157828260060154610c3891906118ab565b82600601819055505b50505050565b828054610c5390611804565b90600052602060002090601f016020900481019282610c755760008555610cbc565b82601f10610c8e57805160ff1916838001178555610cbc565b82800160010185558215610cbc579182015b82811115610cbb578251825591602001919060010190610ca0565b5b509050610cc99190610d36565b5090565b604051806101400160405280600073ffffffffffffffffffffffffffffffffffffffff1681526020016060815260200160608152602001606081526020016000815260200160008152602001600081526020016060815260200160608152602001606081525090565b5b80821115610d4f576000816000905550600101610d37565b5090565b6000604051905090565b600080fd5b600080fd5b600073ffffffffffffffffffffffffffffffffffffffff82169050919050565b6000610d9282610d67565b9050919050565b610da281610d87565b8114610dad57600080fd5b50565b600081359050610dbf81610d99565b92915050565b600080fd5b600080fd5b6000601f19601f8301169050919050565b7f4e487b7100000000000000000000000000000000000000000000000000000000600052604160045260246000fd5b610e1882610dcf565b810181811067ffffffffffffffff82111715610e3757610e36610de0565b5b80604052505050565b6000610e4a610d53565b9050610e568282610e0f565b919050565b600067ffffffffffffffff821115610e7657610e75610de0565b5b610e7f82610dcf565b9050602081019050919050565b82818337600083830152505050565b6000610eae610ea984610e5b565b610e40565b905082815260208101848484011115610eca57610ec9610dca565b5b610ed5848285610e8c565b509392505050565b600082601f830112610ef257610ef1610dc5565b5b8135610f02848260208601610e9b565b91505092915050565b6000819050919050565b610f1e81610f0b565b8114610f2957600080fd5b50565b600081359050610f3b81610f15565b92915050565b600080600080600080600060e0888a031215610f6057610f5f610d5d565b5b6000610f6e8a828b01610db0565b975050602088013567ffffffffffffffff811115610f8f57610f8e610d62565b5b610f9b8a828b01610edd565b965050604088013567ffffffffffffffff811115610fbc57610fbb610d62565b5b610fc88a828b01610edd565b955050606088013567ffffffffffffffff811115610fe957610fe8610d62565b5b610ff58a828b01610edd565b94505060806110068a828b01610f2c565b93505060a06110178a828b01610f2c565b92505060c088013567ffffffffffffffff81111561103857611037610d62565b5b6110448a828b01610edd565b91505092959891949750929550565b61105c81610f0b565b82525050565b60006020820190506110776000830184611053565b92915050565b60006020828403121561109357611092610d5d565b5b60006110a184828501610f2c565b91505092915050565b6110b381610d87565b82525050565b600081519050919050565b600082825260208201905092915050565b60005b838110156110f35780820151818401526020810190506110d8565b83811115611102576000848401525b50505050565b6000611113826110b9565b61111d81856110c4565b935061112d8185602086016110d5565b61113681610dcf565b840191505092915050565b600061010082019050611157600083018b6110aa565b8181036020830152611169818a611108565b9050818103604083015261117d8189611108565b905081810360608301526111918188611108565b90506111a06080830187611053565b6111ad60a0830186611053565b6111ba60c0830185611053565b81810360e08301526111cc8184611108565b90509998505050505050505050565b600081519050919050565b600082825260208201905092915050565b6000819050602082019050919050565b61121081610d87565b82525050565b600082825260208201905092915050565b6000611232826110b9565b61123c8185611216565b935061124c8185602086016110d5565b61125581610dcf565b840191505092915050565b61126981610f0b565b82525050565b600081519050919050565b600082825260208201905092915050565b6000819050602082019050919050565b60006112a78383611207565b60208301905092915050565b6000602082019050919050565b60006112cb8261126f565b6112d5818561127a565b93506112e08361128b565b8060005b838110156113115781516112f8888261129b565b9750611303836112b3565b9250506001810190506112e4565b5085935050505092915050565b600081519050919050565b600082825260208201905092915050565b6000819050602082019050919050565b60006113568383611260565b60208301905092915050565b6000602082019050919050565b600061137a8261131e565b6113848185611329565b935061138f8361133a565b8060005b838110156113c05781516113a7888261134a565b97506113b283611362565b925050600181019050611393565b5085935050505092915050565b6000610140830160008301516113e66000860182611207565b50602083015184820360208601526113fe8282611227565b915050604083015184820360408601526114188282611227565b915050606083015184820360608601526114328282611227565b91505060808301516114476080860182611260565b5060a083015161145a60a0860182611260565b5060c083015161146d60c0860182611260565b5060e083015184820360e08601526114858282611227565b9150506101008301518482036101008601526114a182826112c0565b9150506101208301518482036101208601526114bd828261136f565b9150508091505092915050565b60006114d683836113cd565b905092915050565b6000602082019050919050565b60006114f6826111db565b61150081856111e6565b935083602082028501611512856111f7565b8060005b8581101561154e578484038952815161152f85826114ca565b945061153a836114de565b925060208a01995050600181019050611516565b50829750879550505050505092915050565b6000602082019050818103600083015261157a81846114eb565b905092915050565b600082825260208201905092915050565b600061159e8261126f565b6115a88185611582565b93506115b38361128b565b8060005b838110156115e45781516115cb888261129b565b97506115d6836112b3565b9250506001810190506115b7565b5085935050505092915050565b600082825260208201905092915050565b600061160d8261131e565b61161781856115f1565b93506116228361133a565b8060005b8381101561165357815161163a888261134a565b975061164583611362565b925050600181019050611626565b5085935050505092915050565b6000604082019050818103600083015261167a8185611593565b9050818103602083015261168e8184611602565b90509392505050565b7f74686520646561646c696e652073686f756c642062652061206461746520696e60008201527f2074686520667574757265000000000000000000000000000000000000000000602082015250565b60006116f3602b836110c4565b91506116fe82611697565b604082019050919050565b60006020820190508181036000830152611722816116e6565b9050919050565b7f4e487b7100000000000000000000000000000000000000000000000000000000600052601160045260246000fd5b600061176382610f0b565b91507fffffffffffffffffffffffffffffffffffffffffffffffffffffffffffffffff82141561179657611795611729565b5b600182019050919050565b60006117ac82610f0b565b91506117b783610f0b565b9250828210156117ca576117c9611729565b5b828203905092915050565b7f4e487b7100000000000000000000000000000000000000000000000000000000600052602260045260246000fd5b6000600282049050600182168061181c57607f821691505b602082108114156118305761182f6117d5565b5b50919050565b7f4e487b7100000000000000000000000000000000000000000000000000000000600052603260045260246000fd5b600081905092915050565b50565b6000611880600083611865565b915061188b82611870565b600082019050919050565b60006118a182611873565b9150819050919050565b60006118b682610f0b565b91506118c183610f0b565b9250827fffffffffffffffffffffffffffffffffffffffffffffffffffffffffffffffff038211156118f6576118f5611729565b5b82820190509291505056fea2646970667358221220508a496e1793366f5c579ae6b3dbc64ee0f8f2c8e336389fcd50bb221537defc64736f6c63430008090033",
  "immutableReferences": {},
  "source": "// SPDX-License-Identifier: UNLICENSED\npragma solidity ^0.8.9;\n\ncontract MarketPlace {\n\n    struct Apartment {\n        address owner;\n        string name;\n\n        string title;\n        string description;\n        uint256 target;\n        uint256 deadline;\n        uint256 amountappartment;\n        string image;\n        address[] senderappartment;\n        uint256[] senderamount;\n    }\n\n    mapping(uint256 => Apartment) public apartments;\n\n    uint256 public numberOfApartments = 0;\n\n    function createApartment(address _owner, string memory _title, string memory _name, string memory _description, uint256 _target, uint256 _deadline, string memory _image) public returns (uint256) {\n      Apartment storage apartment = apartments[numberOfApartments]; \n\n      // is everything okay?\n\n       require(apartment.deadline <block.timestamp, \"the deadline should be a date in the future\");\n\n       apartment.owner = _owner;\n       apartment.title = _title;\n       apartment.name = _name;\n\n       apartment.description = _description;\n       apartment.target = _target;\n       apartment.deadline = _deadline;\n       apartment.amountappartment = 0;\n       apartment.image = _image;\n       numberOfApartments++;\n\n       return numberOfApartments-1;\n\n\n    }\n\n    function sellApartment(uint256 _id) public payable {\n\n        uint256 amount = msg.value;\n\n\n        Apartment storage apartment = apartments[_id];\n\n        apartment.senderappartment.push(msg.sender);\n        apartment.senderamount.push(amount);\n\n        (bool sent,) =  payable(apartment.owner).call{value: amount}(\"\");\n\n        if(sent) {\n            apartment.amountappartment = apartment.amountappartment + amount;\n        }\n\n    }\n\n    function getSender(uint256 _id) view public returns (address[] memory, uint256[] memory){\n        return (apartments[_id].senderappartment, apartments[_id].senderamount);\n    }\n\n    function getApartments() public view returns (Apartment[] memory) {\n\n        Apartment[] memory allApartment = new Apartment[](numberOfApartments);\n\n        for(uint i = 0 ; i<numberOfApartments; i++){\n            Apartment storage item = apartments[i];\n            allApartment[i] = item;\n        }\n\n        return allApartment;\n\n    }\n\n\n\n\n\n}",
  "sourcePath": "D:\\DEVOPS\\projets\\Blockchain\\final\\market-place\\web3\\contracts\\MarketPlace.sol",
  "compiler": {
    "name": "solc",
    "version": "0.8.9+commit.e5eed63a.Emscripten.clang"
  },
  "schemaVersion": "3.4.11",
  "updatedAt": "2023-01-15T15:17:51.710Z",
  "devdoc": {
    "kind": "dev",
    "methods": {},
    "version": 1
  },
  "userdoc": {
    "kind": "user",
    "methods": {},
    "version": 1
  }
}