{
  "contractName": "MarketPlace",
  "abi": [
    {
      "inputs": [
        {
          "internalType": "uint256",
          "name": "",
          "type": "uint256"
        }
      ],
      "name": "apartments",
      "outputs": [
        {
          "internalType": "address",
          "name": "owner",
          "type": "address"
        },
        {
          "internalType": "string",
          "name": "name",
          "type": "string"
        },
        {
          "internalType": "string",
          "name": "title",
          "type": "string"
        },
        {
          "internalType": "string",
          "name": "description",
          "type": "string"
        },
        {
          "internalType": "uint256",
          "name": "target",
          "type": "uint256"
        },
        {
          "internalType": "uint256",
          "name": "deadline",
          "type": "uint256"
        },
        {
          "internalType": "uint256",
          "name": "amountappartment",
          "type": "uint256"
        },
        {
          "internalType": "string",
          "name": "image",
          "type": "string"
        }
      ],
      "stateMutability": "view",
      "type": "function",
      "constant": true
    },
    {
      "inputs": [],
      "name": "numberOfApartments",
      "outputs": [
        {
          "internalType": "uint256",
          "name": "",
          "type": "uint256"
        }
      ],
      "stateMutability": "view",
      "type": "function",
      "constant": true
    },
    {
      "inputs": [
        {
          "internalType": "address",
          "name": "_owner",
          "type": "address"
        },
        {
          "internalType": "string",
          "name": "_title",
          "type": "string"
        },
        {
          "internalType": "string",
          "name": "_name",
          "type": "string"
        },
        {
          "internalType": "string",
          "name": "_description",
          "type": "string"
        },
        {
          "internalType": "uint256",
          "name": "_target",
          "type": "uint256"
        },
        {
          "internalType": "uint256",
          "name": "_deadline",
          "type": "uint256"
        },
        {
          "internalType": "string",
          "name": "_image",
          "type": "string"
        }
      ],
      "name": "createApartment",
      "outputs": [
        {
          "internalType": "uint256",
          "name": "",
          "type": "uint256"
        }
      ],
      "stateMutability": "nonpayable",
      "type": "function"
    },
    {
      "inputs": [
        {
          "internalType": "uint256",
          "name": "_id",
          "type": "uint256"
        }
      ],
      "name": "sellApartment",
      "outputs": [],
      "stateMutability": "payable",
      "type": "function",
      "payable": true
    },
    {
      "inputs": [
        {
          "internalType": "uint256",
          "name": "_id",
          "type": "uint256"
        }
      ],
      "name": "getSender",
      "outputs": [
        {
          "internalType": "address[]",
          "name": "",
          "type": "address[]"
        },
        {
          "internalType": "uint256[]",
          "name": "",
          "type": "uint256[]"
        }
      ],
      "stateMutability": "view",
      "type": "function",
      "constant": true
    },
    {
      "inputs": [],
      "name": "getApartments",
      "outputs": [
        {
          "components": [
            {
              "internalType": "address",
              "name": "owner",
              "type": "address"
            },
            {
              "internalType": "string",
              "name": "name",
              "type": "string"
            },
            {
              "internalType": "string",
              "name": "title",
              "type": "string"
            },
            {
              "internalType": "string",
              "name": "description",
              "type": "string"
            },
            {
              "internalType": "uint256",
              "name": "target",
              "type": "uint256"
            },
            {
              "internalType": "uint256",
              "name": "deadline",
              "type": "uint256"
            },
            {
              "internalType": "uint256",
              "name": "amountappartment",
              "type": "uint256"
            },
            {
              "internalType": "string",
              "name": "image",
              "type": "string"
            },
            {
              "internalType": "address[]",
              "name": "senderappartment",
              "type": "address[]"
            },
            {
              "internalType": "uint256[]",
              "name": "senderamount",
              "type": "uint256[]"
            }
          ],
          "internalType": "struct MarketPlace.Apartment[]",
          "name": "",
          "type": "tuple[]"
        }
      ],
      "stateMutability": "view",
      "type": "function",
      "constant": true
    }
  ],
  "bytecode": "0x6080604052600060015534801561001557600080fd5b50611ac9806100256000396000f3fe6080604052600436106100555760003560e01c80632bcc85531461005a578063abb8be1714610097578063af684dd4146100db578063b1c9809914610106578063b971302a14610131578063d6aa512f1461016f575b600080fd5b34801561006657600080fd5b50610081600480360381019061007c9190610e82565b61018b565b60405161008e9190610fa3565b60405180910390f35b3480156100a357600080fd5b506100be60048036038101906100b99190610fbe565b6102c5565b6040516100d2989796959493929190611079565b60405180910390f35b3480156100e757600080fd5b506100f061054d565b6040516100fd9190610fa3565b60405180910390f35b34801561011257600080fd5b5061011b610553565b6040516101289190611498565b60405180910390f35b34801561013d57600080fd5b5061015860048036038101906101539190610fbe565b6109bb565b604051610166929190611598565b60405180910390f35b61018960048036038101906101849190610fbe565b610acb565b005b60008060008060015481526020019081526020016000209050428160050154106101ea576040517f08c379a00000000000000000000000000000000000000000000000000000000081526004016101e190611641565b60405180910390fd5b888160000160006101000a81548173ffffffffffffffffffffffffffffffffffffffff021916908373ffffffffffffffffffffffffffffffffffffffff1602179055508781600201908161023e919061186d565b5086816001019081610250919061186d565b5085816003019081610262919061186d565b508481600401819055508381600501819055506000816006018190555082816007019081610290919061186d565b50600160008154809291906102a49061196e565b9190505550600180546102b791906119b6565b915050979650505050505050565b60006020528060005260406000206000915090508060000160009054906101000a900473ffffffffffffffffffffffffffffffffffffffff169080600101805461030e90611690565b80601f016020809104026020016040519081016040528092919081815260200182805461033a90611690565b80156103875780601f1061035c57610100808354040283529160200191610387565b820191906000526020600020905b81548152906001019060200180831161036a57829003601f168201915b50505050509080600201805461039c90611690565b80601f01602080910402602001604051908101604052809291908181526020018280546103c890611690565b80156104155780601f106103ea57610100808354040283529160200191610415565b820191906000526020600020905b8154815290600101906020018083116103f857829003601f168201915b50505050509080600301805461042a90611690565b80601f016020809104026020016040519081016040528092919081815260200182805461045690611690565b80156104a35780601f10610478576101008083540402835291602001916104a3565b820191906000526020600020905b81548152906001019060200180831161048657829003601f168201915b5050505050908060040154908060050154908060060154908060070180546104ca90611690565b80601f01602080910402602001604051908101604052809291908181526020018280546104f690611690565b80156105435780601f1061051857610100808354040283529160200191610543565b820191906000526020600020905b81548152906001019060200180831161052657829003601f168201915b5050505050905088565b60015481565b6060600060015467ffffffffffffffff81111561057357610572610d21565b5b6040519080825280602002602001820160405280156105ac57816020015b610599610c2b565b8152602001906001900390816105915790505b50905060005b6001548110156109b3576000806000838152602001908152602001600020905080604051806101400160405290816000820160009054906101000a900473ffffffffffffffffffffffffffffffffffffffff1673ffffffffffffffffffffffffffffffffffffffff1673ffffffffffffffffffffffffffffffffffffffff16815260200160018201805461064590611690565b80601f016020809104026020016040519081016040528092919081815260200182805461067190611690565b80156106be5780601f10610693576101008083540402835291602001916106be565b820191906000526020600020905b8154815290600101906020018083116106a157829003601f168201915b505050505081526020016002820180546106d790611690565b80601f016020809104026020016040519081016040528092919081815260200182805461070390611690565b80156107505780601f1061072557610100808354040283529160200191610750565b820191906000526020600020905b81548152906001019060200180831161073357829003601f168201915b5050505050815260200160038201805461076990611690565b80601f016020809104026020016040519081016040528092919081815260200182805461079590611690565b80156107e25780601f106107b7576101008083540402835291602001916107e2565b820191906000526020600020905b8154815290600101906020018083116107c557829003601f168201915b5050505050815260200160048201548152602001600582015481526020016006820154815260200160078201805461081990611690565b80601f016020809104026020016040519081016040528092919081815260200182805461084590611690565b80156108925780601f1061086757610100808354040283529160200191610892565b820191906000526020600020905b81548152906001019060200180831161087557829003601f168201915b505050505081526020016008820180548060200260200160405190810160405280929190818152602001828054801561092057602002820191906000526020600020905b8160009054906101000a900473ffffffffffffffffffffffffffffffffffffffff1673ffffffffffffffffffffffffffffffffffffffff16815260200190600101908083116108d6575b505050505081526020016009820180548060200260200160405190810160405280929190818152602001828054801561097857602002820191906000526020600020905b815481526020019060010190808311610964575b505050505081525050838381518110610994576109936119ea565b5b60200260200101819052505080806109ab9061196e565b9150506105b2565b508091505090565b60608060008084815260200190815260200160002060080160008085815260200190815260200160002060090181805480602002602001604051908101604052809291908181526020018280548015610a6957602002820191906000526020600020905b8160009054906101000a900473ffffffffffffffffffffffffffffffffffffffff1673ffffffffffffffffffffffffffffffffffffffff1681526020019060010190808311610a1f575b5050505050915080805480602002602001604051908101604052809291908181526020018280548015610abb57602002820191906000526020600020905b815481526020019060010190808311610aa7575b5050505050905091509150915091565b60003490506000806000848152602001908152602001600020905080600801339080600181540180825580915050600190039060005260206000200160009091909190916101000a81548173ffffffffffffffffffffffffffffffffffffffff021916908373ffffffffffffffffffffffffffffffffffffffff1602179055508060090182908060018154018082558091505060019003906000526020600020016000909190919091505560008160000160009054906101000a900473ffffffffffffffffffffffffffffffffffffffff1673ffffffffffffffffffffffffffffffffffffffff1683604051610bc090611a4a565b60006040518083038185875af1925050503d8060008114610bfd576040519150601f19603f3d011682016040523d82523d6000602084013e610c02565b606091505b505090508015610c2557828260060154610c1c9190611a5f565b82600601819055505b50505050565b604051806101400160405280600073ffffffffffffffffffffffffffffffffffffffff1681526020016060815260200160608152602001606081526020016000815260200160008152602001600081526020016060815260200160608152602001606081525090565b6000604051905090565b600080fd5b600080fd5b600073ffffffffffffffffffffffffffffffffffffffff82169050919050565b6000610cd382610ca8565b9050919050565b610ce381610cc8565b8114610cee57600080fd5b50565b600081359050610d0081610cda565b92915050565b600080fd5b600080fd5b6000601f19601f8301169050919050565b7f4e487b7100000000000000000000000000000000000000000000000000000000600052604160045260246000fd5b610d5982610d10565b810181811067ffffffffffffffff82111715610d7857610d77610d21565b5b80604052505050565b6000610d8b610c94565b9050610d978282610d50565b919050565b600067ffffffffffffffff821115610db757610db6610d21565b5b610dc082610d10565b9050602081019050919050565b82818337600083830152505050565b6000610def610dea84610d9c565b610d81565b905082815260208101848484011115610e0b57610e0a610d0b565b5b610e16848285610dcd565b509392505050565b600082601f830112610e3357610e32610d06565b5b8135610e43848260208601610ddc565b91505092915050565b6000819050919050565b610e5f81610e4c565b8114610e6a57600080fd5b50565b600081359050610e7c81610e56565b92915050565b600080600080600080600060e0888a031215610ea157610ea0610c9e565b5b6000610eaf8a828b01610cf1565b975050602088013567ffffffffffffffff811115610ed057610ecf610ca3565b5b610edc8a828b01610e1e565b965050604088013567ffffffffffffffff811115610efd57610efc610ca3565b5b610f098a828b01610e1e565b955050606088013567ffffffffffffffff811115610f2a57610f29610ca3565b5b610f368a828b01610e1e565b9450506080610f478a828b01610e6d565b93505060a0610f588a828b01610e6d565b92505060c088013567ffffffffffffffff811115610f7957610f78610ca3565b5b610f858a828b01610e1e565b91505092959891949750929550565b610f9d81610e4c565b82525050565b6000602082019050610fb86000830184610f94565b92915050565b600060208284031215610fd457610fd3610c9e565b5b6000610fe284828501610e6d565b91505092915050565b610ff481610cc8565b82525050565b600081519050919050565b600082825260208201905092915050565b60005b83811015611034578082015181840152602081019050611019565b60008484015250505050565b600061104b82610ffa565b6110558185611005565b9350611065818560208601611016565b61106e81610d10565b840191505092915050565b60006101008201905061108f600083018b610feb565b81810360208301526110a1818a611040565b905081810360408301526110b58189611040565b905081810360608301526110c98188611040565b90506110d86080830187610f94565b6110e560a0830186610f94565b6110f260c0830185610f94565b81810360e08301526111048184611040565b90509998505050505050505050565b600081519050919050565b600082825260208201905092915050565b6000819050602082019050919050565b61114881610cc8565b82525050565b600082825260208201905092915050565b600061116a82610ffa565b611174818561114e565b9350611184818560208601611016565b61118d81610d10565b840191505092915050565b6111a181610e4c565b82525050565b600081519050919050565b600082825260208201905092915050565b6000819050602082019050919050565b60006111df838361113f565b60208301905092915050565b6000602082019050919050565b6000611203826111a7565b61120d81856111b2565b9350611218836111c3565b8060005b8381101561124957815161123088826111d3565b975061123b836111eb565b92505060018101905061121c565b5085935050505092915050565b600081519050919050565b600082825260208201905092915050565b6000819050602082019050919050565b600061128e8383611198565b60208301905092915050565b6000602082019050919050565b60006112b282611256565b6112bc8185611261565b93506112c783611272565b8060005b838110156112f85781516112df8882611282565b97506112ea8361129a565b9250506001810190506112cb565b5085935050505092915050565b60006101408301600083015161131e600086018261113f565b5060208301518482036020860152611336828261115f565b91505060408301518482036040860152611350828261115f565b9150506060830151848203606086015261136a828261115f565b915050608083015161137f6080860182611198565b5060a083015161139260a0860182611198565b5060c08301516113a560c0860182611198565b5060e083015184820360e08601526113bd828261115f565b9150506101008301518482036101008601526113d982826111f8565b9150506101208301518482036101208601526113f582826112a7565b9150508091505092915050565b600061140e8383611305565b905092915050565b6000602082019050919050565b600061142e82611113565b611438818561111e565b93508360208202850161144a8561112f565b8060005b8581101561148657848403895281516114678582611402565b945061147283611416565b925060208a0199505060018101905061144e565b50829750879550505050505092915050565b600060208201905081810360008301526114b28184611423565b905092915050565b600082825260208201905092915050565b60006114d6826111a7565b6114e081856114ba565b93506114eb836111c3565b8060005b8381101561151c57815161150388826111d3565b975061150e836111eb565b9250506001810190506114ef565b5085935050505092915050565b600082825260208201905092915050565b600061154582611256565b61154f8185611529565b935061155a83611272565b8060005b8381101561158b5781516115728882611282565b975061157d8361129a565b92505060018101905061155e565b5085935050505092915050565b600060408201905081810360008301526115b281856114cb565b905081810360208301526115c6818461153a565b90509392505050565b7f74686520646561646c696e652073686f756c642062652061206461746520696e60008201527f2074686520667574757265000000000000000000000000000000000000000000602082015250565b600061162b602b83611005565b9150611636826115cf565b604082019050919050565b6000602082019050818103600083015261165a8161161e565b9050919050565b7f4e487b7100000000000000000000000000000000000000000000000000000000600052602260045260246000fd5b600060028204905060018216806116a857607f821691505b6020821081036116bb576116ba611661565b5b50919050565b60008190508160005260206000209050919050565b60006020601f8301049050919050565b600082821b905092915050565b6000600883026117237fffffffffffffffffffffffffffffffffffffffffffffffffffffffffffffffff826116e6565b61172d86836116e6565b95508019841693508086168417925050509392505050565b6000819050919050565b600061176a61176561176084610e4c565b611745565b610e4c565b9050919050565b6000819050919050565b6117848361174f565b61179861179082611771565b8484546116f3565b825550505050565b600090565b6117ad6117a0565b6117b881848461177b565b505050565b5b818110156117dc576117d16000826117a5565b6001810190506117be565b5050565b601f821115611821576117f2816116c1565b6117fb846116d6565b8101602085101561180a578190505b61181e611816856116d6565b8301826117bd565b50505b505050565b600082821c905092915050565b600061184460001984600802611826565b1980831691505092915050565b600061185d8383611833565b9150826002028217905092915050565b61187682610ffa565b67ffffffffffffffff81111561188f5761188e610d21565b5b6118998254611690565b6118a48282856117e0565b600060209050601f8311600181146118d757600084156118c5578287015190505b6118cf8582611851565b865550611937565b601f1984166118e5866116c1565b60005b8281101561190d578489015182556001820191506020850194506020810190506118e8565b8683101561192a5784890151611926601f891682611833565b8355505b6001600288020188555050505b505050505050565b7f4e487b7100000000000000000000000000000000000000000000000000000000600052601160045260246000fd5b600061197982610e4c565b91507fffffffffffffffffffffffffffffffffffffffffffffffffffffffffffffffff82036119ab576119aa61193f565b5b600182019050919050565b60006119c182610e4c565b91506119cc83610e4c565b92508282039050818111156119e4576119e361193f565b5b92915050565b7f4e487b7100000000000000000000000000000000000000000000000000000000600052603260045260246000fd5b600081905092915050565b50565b6000611a34600083611a19565b9150611a3f82611a24565b600082019050919050565b6000611a5582611a27565b9150819050919050565b6000611a6a82610e4c565b9150611a7583610e4c565b9250828201905080821115611a8d57611a8c61193f565b5b9291505056fea264697066735822122018dc518fe834e8061588c5212b81377e9839326ffd57e4590112df3c1bbd992664736f6c63430008110033",
  "immutableReferences": {},
  "source": "// SPDX-License-Identifier: UNLICENSED\r\npragma solidity ^0.8.9;\r\n\r\ncontract MarketPlace {\r\n\r\n    struct Apartment {\r\n        address owner;\r\n        string name;\r\n        string title;\r\n        string description;\r\n        uint256 target;\r\n        uint256 deadline;\r\n        uint256 amountappartment;\r\n        string image;\r\n        address[] senderappartment;\r\n        uint256[] senderamount;\r\n    }\r\n\r\n    mapping(uint256 => Apartment) public apartments;\r\n\r\n    uint256 public numberOfApartments = 0;\r\n\r\n    function createApartment(address _owner, string memory _title, string memory _name, string memory _description, uint256 _target, uint256 _deadline, string memory _image) public returns (uint256) {\r\n      Apartment storage apartment = apartments[numberOfApartments]; \r\n\r\n      // is everything okay?\r\n\r\n       require(apartment.deadline <block.timestamp, \"the deadline should be a date in the future\");\r\n\r\n       apartment.owner = _owner;\r\n       apartment.title = _title;\r\n       apartment.name = _name;\r\n       apartment.description = _description;\r\n       apartment.target = _target;\r\n       apartment.deadline = _deadline;\r\n       apartment.amountappartment = 0;\r\n       apartment.image = _image;\r\n       numberOfApartments++;\r\n\r\n       return numberOfApartments-1;\r\n\r\n\r\n    }\r\n\r\n    function sellApartment(uint256 _id) public payable {\r\n\r\n        uint256 amount = msg.value;\r\n\r\n\r\n        Apartment storage apartment = apartments[_id];\r\n\r\n        apartment.senderappartment.push(msg.sender);\r\n        apartment.senderamount.push(amount);\r\n\r\n        (bool sent,) =  payable(apartment.owner).call{value: amount}(\"\");\r\n\r\n        if(sent) {\r\n            apartment.amountappartment = apartment.amountappartment + amount;\r\n        }\r\n\r\n    }\r\n\r\n    function getSender(uint256 _id) view public returns (address[] memory, uint256[] memory){\r\n        return (apartments[_id].senderappartment, apartments[_id].senderamount);\r\n    }\r\n\r\n    function getApartments() public view returns (Apartment[] memory) {\r\n\r\n        Apartment[] memory allApartment = new Apartment[](numberOfApartments);\r\n\r\n        for(uint i = 0 ; i<numberOfApartments; i++){\r\n            Apartment storage item = apartments[i];\r\n            allApartment[i] = item;\r\n        }\r\n\r\n        return allApartment;\r\n\r\n    }\r\n\r\n\r\n\r\n\r\n\r\n}",
  "sourcePath": "D:\\DEVOPS\\projets\\Blockchain\\final\\market-place\\web3\\contracts\\MarKetPlace.sol",
  "compiler": {
    "name": "solc",
    "version": "0.8.17+commit.8df45f5f.Emscripten.clang"
  },
  "schemaVersion": "3.4.11",
  "updatedAt": "2023-01-18T08:52:17.384Z",
  "networkType": "ethereum",
  "devdoc": {
    "kind": "dev",
    "methods": {},
    "version": 1
  },
  "userdoc": {
    "kind": "user",
    "methods": {},
    "version": 1
  }
}