{
  "contractName": "MarketPlace",
  "abi": [
    {
      "anonymous": false,
      "inputs": [
        {
          "indexed": true,
          "internalType": "address",
          "name": "from",
          "type": "address"
        },
        {
          "indexed": true,
          "internalType": "address",
          "name": "to",
          "type": "address"
        },
        {
          "indexed": false,
          "internalType": "uint256",
          "name": "amount",
          "type": "uint256"
        }
      ],
      "name": "Withdrawal",
      "type": "event"
    },
    {
      "inputs": [
        {
          "internalType": "uint256",
          "name": "",
          "type": "uint256"
        }
      ],
      "name": "apartments",
      "outputs": [
        {
          "internalType": "address payable",
          "name": "owner",
          "type": "address"
        },
        {
          "internalType": "string",
          "name": "name",
          "type": "string"
        },
        {
          "internalType": "string",
          "name": "title",
          "type": "string"
        },
        {
          "internalType": "string",
          "name": "description",
          "type": "string"
        },
        {
          "internalType": "uint256",
          "name": "deadline",
          "type": "uint256"
        },
        {
          "internalType": "uint256",
          "name": "amountappartment",
          "type": "uint256"
        },
        {
          "internalType": "string",
          "name": "image",
          "type": "string"
        },
        {
          "internalType": "address",
          "name": "senderappartment",
          "type": "address"
        }
      ],
      "stateMutability": "view",
      "type": "function",
      "constant": true
    },
    {
      "inputs": [
        {
          "internalType": "address",
          "name": "",
          "type": "address"
        }
      ],
      "name": "balances",
      "outputs": [
        {
          "internalType": "uint256",
          "name": "",
          "type": "uint256"
        }
      ],
      "stateMutability": "view",
      "type": "function",
      "constant": true
    },
    {
      "inputs": [],
      "name": "numberOfApartments",
      "outputs": [
        {
          "internalType": "uint256",
          "name": "",
          "type": "uint256"
        }
      ],
      "stateMutability": "view",
      "type": "function",
      "constant": true
    },
    {
      "inputs": [
        {
          "internalType": "address payable",
          "name": "_owner",
          "type": "address"
        },
        {
          "internalType": "string",
          "name": "_title",
          "type": "string"
        },
        {
          "internalType": "string",
          "name": "_name",
          "type": "string"
        },
        {
          "internalType": "string",
          "name": "_description",
          "type": "string"
        },
        {
          "internalType": "uint256",
          "name": "_amountappartment",
          "type": "uint256"
        },
        {
          "internalType": "uint256",
          "name": "_deadline",
          "type": "uint256"
        },
        {
          "internalType": "string",
          "name": "_image",
          "type": "string"
        }
      ],
      "name": "createApartment",
      "outputs": [
        {
          "internalType": "uint256",
          "name": "",
          "type": "uint256"
        }
      ],
      "stateMutability": "nonpayable",
      "type": "function"
    },
    {
      "inputs": [],
      "name": "deposit",
      "outputs": [],
      "stateMutability": "payable",
      "type": "function",
      "payable": true
    },
    {
      "inputs": [
        {
          "internalType": "uint256",
          "name": "_id",
          "type": "uint256"
        }
      ],
      "name": "withdraw",
      "outputs": [],
      "stateMutability": "nonpayable",
      "type": "function"
    },
    {
      "inputs": [],
      "name": "getApartments",
      "outputs": [
        {
          "components": [
            {
              "internalType": "address payable",
              "name": "owner",
              "type": "address"
            },
            {
              "internalType": "string",
              "name": "name",
              "type": "string"
            },
            {
              "internalType": "string",
              "name": "title",
              "type": "string"
            },
            {
              "internalType": "string",
              "name": "description",
              "type": "string"
            },
            {
              "internalType": "uint256",
              "name": "deadline",
              "type": "uint256"
            },
            {
              "internalType": "uint256",
              "name": "amountappartment",
              "type": "uint256"
            },
            {
              "internalType": "string",
              "name": "image",
              "type": "string"
            },
            {
              "internalType": "address",
              "name": "senderappartment",
              "type": "address"
            },
            {
              "internalType": "uint256[]",
              "name": "senderamount",
              "type": "uint256[]"
            }
          ],
          "internalType": "struct MarketPlace.Apartment[]",
          "name": "",
          "type": "tuple[]"
        }
      ],
      "stateMutability": "view",
      "type": "function",
      "constant": true
    }
  ],
  "bytecode": "0x6080604052600060025534801561001557600080fd5b50611a0d806100256000396000f3fe6080604052600436106100705760003560e01c8063abb8be171161004e578063abb8be1714610118578063af684dd41461015c578063b1c9809914610187578063d0e30db0146101b257610070565b806327e235e3146100755780632bcc8553146100b25780632e1a7d4d146100ef575b600080fd5b34801561008157600080fd5b5061009c60048036038101906100979190610d39565b6101bc565b6040516100a99190610d7f565b60405180910390f35b3480156100be57600080fd5b506100d960048036038101906100d49190610f4a565b6101d4565b6040516100e69190610d7f565b60405180910390f35b3480156100fb57600080fd5b506101166004803603810190610111919061105c565b610305565b005b34801561012457600080fd5b5061013f600480360381019061013a919061105c565b610516565b604051610153989796959493929190611126565b60405180910390f35b34801561016857600080fd5b506101716107be565b60405161017e9190610d7f565b60405180910390f35b34801561019357600080fd5b5061019c6107c4565b6040516101a99190611489565b60405180910390f35b6101ba610bea565b005b60016020528060005260406000206000915090505481565b6000806000806002548152602001908152602001600020905042816004015410610233576040517f08c379a000000000000000000000000000000000000000000000000000000000815260040161022a9061151d565b60405180910390fd5b888160000160006101000a81548173ffffffffffffffffffffffffffffffffffffffff021916908373ffffffffffffffffffffffffffffffffffffffff160217905550878160020190816102879190611749565b50868160010190816102999190611749565b50858160030190816102ab9190611749565b50838160040181905550848160050181905550828160060190816102cf9190611749565b50600260008154809291906102e39061184a565b919050555060016002546102f79190611892565b915050979650505050505050565b60008060008381526020019081526020016000209050600160003373ffffffffffffffffffffffffffffffffffffffff1673ffffffffffffffffffffffffffffffffffffffff16815260200190815260200160002054816005015411156103a1576040517f08c379a000000000000000000000000000000000000000000000000000000000815260040161039890611912565b60405180910390fd5b8060000160009054906101000a900473ffffffffffffffffffffffffffffffffffffffff1673ffffffffffffffffffffffffffffffffffffffff166108fc620186a083600501546103f29190611932565b9081150290604051600060405180830381858888f1935050505015801561041d573d6000803e3d6000fd5b50338160070160006101000a81548173ffffffffffffffffffffffffffffffffffffffff021916908373ffffffffffffffffffffffffffffffffffffffff1602179055508060000160009054906101000a900473ffffffffffffffffffffffffffffffffffffffff1673ffffffffffffffffffffffffffffffffffffffff168160070160009054906101000a900473ffffffffffffffffffffffffffffffffffffffff1673ffffffffffffffffffffffffffffffffffffffff167f2717ead6b9200dd235aad468c9809ea400fe33ac69b5bfaa6d3e90fc922b6398836005015460405161050a9190610d7f565b60405180910390a35050565b60006020528060005260406000206000915090508060000160009054906101000a900473ffffffffffffffffffffffffffffffffffffffff169080600101805461055f9061156c565b80601f016020809104026020016040519081016040528092919081815260200182805461058b9061156c565b80156105d85780601f106105ad576101008083540402835291602001916105d8565b820191906000526020600020905b8154815290600101906020018083116105bb57829003601f168201915b5050505050908060020180546105ed9061156c565b80601f01602080910402602001604051908101604052809291908181526020018280546106199061156c565b80156106665780601f1061063b57610100808354040283529160200191610666565b820191906000526020600020905b81548152906001019060200180831161064957829003601f168201915b50505050509080600301805461067b9061156c565b80601f01602080910402602001604051908101604052809291908181526020018280546106a79061156c565b80156106f45780601f106106c9576101008083540402835291602001916106f4565b820191906000526020600020905b8154815290600101906020018083116106d757829003601f168201915b5050505050908060040154908060050154908060060180546107159061156c565b80601f01602080910402602001604051908101604052809291908181526020018280546107419061156c565b801561078e5780601f106107635761010080835404028352916020019161078e565b820191906000526020600020905b81548152906001019060200180831161077157829003601f168201915b5050505050908060070160009054906101000a900473ffffffffffffffffffffffffffffffffffffffff16905088565b60025481565b6060600060025467ffffffffffffffff8111156107e4576107e3610df3565b5b60405190808252806020026020018201604052801561081d57816020015b61080a610c4f565b8152602001906001900390816108025790505b50905060005b600254811015610be2576000806000838152602001908152602001600020905080604051806101200160405290816000820160009054906101000a900473ffffffffffffffffffffffffffffffffffffffff1673ffffffffffffffffffffffffffffffffffffffff1673ffffffffffffffffffffffffffffffffffffffff1681526020016001820180546108b69061156c565b80601f01602080910402602001604051908101604052809291908181526020018280546108e29061156c565b801561092f5780601f106109045761010080835404028352916020019161092f565b820191906000526020600020905b81548152906001019060200180831161091257829003601f168201915b505050505081526020016002820180546109489061156c565b80601f01602080910402602001604051908101604052809291908181526020018280546109749061156c565b80156109c15780601f10610996576101008083540402835291602001916109c1565b820191906000526020600020905b8154815290600101906020018083116109a457829003601f168201915b505050505081526020016003820180546109da9061156c565b80601f0160208091040260200160405190810160405280929190818152602001828054610a069061156c565b8015610a535780601f10610a2857610100808354040283529160200191610a53565b820191906000526020600020905b815481529060010190602001808311610a3657829003601f168201915b505050505081526020016004820154815260200160058201548152602001600682018054610a809061156c565b80601f0160208091040260200160405190810160405280929190818152602001828054610aac9061156c565b8015610af95780601f10610ace57610100808354040283529160200191610af9565b820191906000526020600020905b815481529060010190602001808311610adc57829003601f168201915b505050505081526020016007820160009054906101000a900473ffffffffffffffffffffffffffffffffffffffff1673ffffffffffffffffffffffffffffffffffffffff1673ffffffffffffffffffffffffffffffffffffffff16815260200160088201805480602002602001604051908101604052809291908181526020018280548015610ba757602002820191906000526020600020905b815481526020019060010190808311610b93575b505050505081525050838381518110610bc357610bc2611974565b5b6020026020010181905250508080610bda9061184a565b915050610823565b508091505090565b60003411610bf757600080fd5b34600160003373ffffffffffffffffffffffffffffffffffffffff1673ffffffffffffffffffffffffffffffffffffffff1681526020019081526020016000206000828254610c4691906119a3565b92505081905550565b604051806101200160405280600073ffffffffffffffffffffffffffffffffffffffff168152602001606081526020016060815260200160608152602001600081526020016000815260200160608152602001600073ffffffffffffffffffffffffffffffffffffffff168152602001606081525090565b6000604051905090565b600080fd5b600080fd5b600073ffffffffffffffffffffffffffffffffffffffff82169050919050565b6000610d0682610cdb565b9050919050565b610d1681610cfb565b8114610d2157600080fd5b50565b600081359050610d3381610d0d565b92915050565b600060208284031215610d4f57610d4e610cd1565b5b6000610d5d84828501610d24565b91505092915050565b6000819050919050565b610d7981610d66565b82525050565b6000602082019050610d946000830184610d70565b92915050565b6000610da582610cdb565b9050919050565b610db581610d9a565b8114610dc057600080fd5b50565b600081359050610dd281610dac565b92915050565b600080fd5b600080fd5b6000601f19601f8301169050919050565b7f4e487b7100000000000000000000000000000000000000000000000000000000600052604160045260246000fd5b610e2b82610de2565b810181811067ffffffffffffffff82111715610e4a57610e49610df3565b5b80604052505050565b6000610e5d610cc7565b9050610e698282610e22565b919050565b600067ffffffffffffffff821115610e8957610e88610df3565b5b610e9282610de2565b9050602081019050919050565b82818337600083830152505050565b6000610ec1610ebc84610e6e565b610e53565b905082815260208101848484011115610edd57610edc610ddd565b5b610ee8848285610e9f565b509392505050565b600082601f830112610f0557610f04610dd8565b5b8135610f15848260208601610eae565b91505092915050565b610f2781610d66565b8114610f3257600080fd5b50565b600081359050610f4481610f1e565b92915050565b600080600080600080600060e0888a031215610f6957610f68610cd1565b5b6000610f778a828b01610dc3565b975050602088013567ffffffffffffffff811115610f9857610f97610cd6565b5b610fa48a828b01610ef0565b965050604088013567ffffffffffffffff811115610fc557610fc4610cd6565b5b610fd18a828b01610ef0565b955050606088013567ffffffffffffffff811115610ff257610ff1610cd6565b5b610ffe8a828b01610ef0565b945050608061100f8a828b01610f35565b93505060a06110208a828b01610f35565b92505060c088013567ffffffffffffffff81111561104157611040610cd6565b5b61104d8a828b01610ef0565b91505092959891949750929550565b60006020828403121561107257611071610cd1565b5b600061108084828501610f35565b91505092915050565b61109281610d9a565b82525050565b600081519050919050565b600082825260208201905092915050565b60005b838110156110d25780820151818401526020810190506110b7565b60008484015250505050565b60006110e982611098565b6110f381856110a3565b93506111038185602086016110b4565b61110c81610de2565b840191505092915050565b61112081610cfb565b82525050565b60006101008201905061113c600083018b611089565b818103602083015261114e818a6110de565b9050818103604083015261116281896110de565b9050818103606083015261117681886110de565b90506111856080830187610d70565b61119260a0830186610d70565b81810360c08301526111a481856110de565b90506111b360e0830184611117565b9998505050505050505050565b600081519050919050565b600082825260208201905092915050565b6000819050602082019050919050565b6111f581610d9a565b82525050565b600082825260208201905092915050565b600061121782611098565b61122181856111fb565b93506112318185602086016110b4565b61123a81610de2565b840191505092915050565b61124e81610d66565b82525050565b61125d81610cfb565b82525050565b600081519050919050565b600082825260208201905092915050565b6000819050602082019050919050565b600061129b8383611245565b60208301905092915050565b6000602082019050919050565b60006112bf82611263565b6112c9818561126e565b93506112d48361127f565b8060005b838110156113055781516112ec888261128f565b97506112f7836112a7565b9250506001810190506112d8565b5085935050505092915050565b60006101208301600083015161132b60008601826111ec565b5060208301518482036020860152611343828261120c565b9150506040830151848203604086015261135d828261120c565b91505060608301518482036060860152611377828261120c565b915050608083015161138c6080860182611245565b5060a083015161139f60a0860182611245565b5060c083015184820360c08601526113b7828261120c565b91505060e08301516113cc60e0860182611254565b506101008301518482036101008601526113e682826112b4565b9150508091505092915050565b60006113ff8383611312565b905092915050565b6000602082019050919050565b600061141f826111c0565b61142981856111cb565b93508360208202850161143b856111dc565b8060005b85811015611477578484038952815161145885826113f3565b945061146383611407565b925060208a0199505060018101905061143f565b50829750879550505050505092915050565b600060208201905081810360008301526114a38184611414565b905092915050565b7f74686520646561646c696e652073686f756c642062652061206461746520696e60008201527f2074686520667574757265000000000000000000000000000000000000000000602082015250565b6000611507602b836110a3565b9150611512826114ab565b604082019050919050565b60006020820190508181036000830152611536816114fa565b9050919050565b7f4e487b7100000000000000000000000000000000000000000000000000000000600052602260045260246000fd5b6000600282049050600182168061158457607f821691505b6020821081036115975761159661153d565b5b50919050565b60008190508160005260206000209050919050565b60006020601f8301049050919050565b600082821b905092915050565b6000600883026115ff7fffffffffffffffffffffffffffffffffffffffffffffffffffffffffffffffff826115c2565b61160986836115c2565b95508019841693508086168417925050509392505050565b6000819050919050565b600061164661164161163c84610d66565b611621565b610d66565b9050919050565b6000819050919050565b6116608361162b565b61167461166c8261164d565b8484546115cf565b825550505050565b600090565b61168961167c565b611694818484611657565b505050565b5b818110156116b8576116ad600082611681565b60018101905061169a565b5050565b601f8211156116fd576116ce8161159d565b6116d7846115b2565b810160208510156116e6578190505b6116fa6116f2856115b2565b830182611699565b50505b505050565b600082821c905092915050565b600061172060001984600802611702565b1980831691505092915050565b6000611739838361170f565b9150826002028217905092915050565b61175282611098565b67ffffffffffffffff81111561176b5761176a610df3565b5b611775825461156c565b6117808282856116bc565b600060209050601f8311600181146117b357600084156117a1578287015190505b6117ab858261172d565b865550611813565b601f1984166117c18661159d565b60005b828110156117e9578489015182556001820191506020850194506020810190506117c4565b868310156118065784890151611802601f89168261170f565b8355505b6001600288020188555050505b505050505050565b7f4e487b7100000000000000000000000000000000000000000000000000000000600052601160045260246000fd5b600061185582610d66565b91507fffffffffffffffffffffffffffffffffffffffffffffffffffffffffffffffff82036118875761188661181b565b5b600182019050919050565b600061189d82610d66565b91506118a883610d66565b92508282039050818111156118c0576118bf61181b565b5b92915050565b7f496e76616c696420616d6f756e74000000000000000000000000000000000000600082015250565b60006118fc600e836110a3565b9150611907826118c6565b602082019050919050565b6000602082019050818103600083015261192b816118ef565b9050919050565b600061193d82610d66565b915061194883610d66565b925082820261195681610d66565b9150828204841483151761196d5761196c61181b565b5b5092915050565b7f4e487b7100000000000000000000000000000000000000000000000000000000600052603260045260246000fd5b60006119ae82610d66565b91506119b983610d66565b92508282019050808211156119d1576119d061181b565b5b9291505056fea26469706673582212205463e47977eeee18d447c3ed6d45c0b07e6f68e441a0c5810a6dd94cf034614e64736f6c63430008110033",
  "immutableReferences": {},
  "source": "// SPDX-License-Identifier: UNLICENSED\r\npragma solidity ^0.8.9;\r\n\r\ncontract MarketPlace {\r\n\r\n    struct Apartment {\r\n        address payable owner;\r\n        string name;\r\n        string title;\r\n        string description;\r\n        uint256 deadline;\r\n        uint256 amountappartment;\r\n        string image;\r\n        address senderappartment;\r\n        uint256[] senderamount;\r\n    }\r\n\r\n    \r\n\r\n    mapping(uint256 => Apartment) public apartments; \r\n    mapping(address => uint) public balances;\r\n\r\n    uint256 public numberOfApartments = 0;\r\n\r\n    function createApartment(address payable _owner, string memory _title, string memory _name, string memory _description, uint256 _amountappartment, uint256 _deadline, string memory _image) public returns (uint256) {\r\n      Apartment storage apartment = apartments[numberOfApartments]; \r\n\r\n      // is everything okay?\r\n\r\n       require(apartment.deadline <block.timestamp, \"the deadline should be a date in the future\");\r\n\r\n       apartment.owner = _owner;\r\n       apartment.title = _title;\r\n       apartment.name = _name;\r\n       apartment.description = _description;\r\n       apartment.deadline = _deadline;\r\n       apartment.amountappartment = _amountappartment;\r\n       apartment.image = _image;\r\n       numberOfApartments++;\r\n\r\n       return numberOfApartments-1;\r\n\r\n\r\n\r\n    }\r\n\r\n\r\n\r\n    function deposit() public payable {\r\n        require(msg.value > 0);\r\n        balances[msg.sender] += msg.value;\r\n    }\r\n\r\n    function withdraw(uint256 _id) public {\r\n\r\n        \r\n        Apartment storage apartment = apartments[_id];\r\n      \r\n        require(apartment.amountappartment <= balances[msg.sender], \"Invalid amount\");\r\n        apartment.owner.transfer(apartment.amountappartment*10**5 );\r\n        apartment.senderappartment  = msg.sender;\r\n\r\n        emit Withdrawal(apartment.senderappartment, apartment.owner, apartment.amountappartment );\r\n    }\r\n\r\n event Withdrawal(address indexed from, address indexed to, uint amount);\r\n\r\n\r\n    function getApartments() public view returns (Apartment[] memory) {\r\n\r\n        Apartment[] memory allApartments = new Apartment[](numberOfApartments);\r\n\r\n        for(uint i = 0 ; i<numberOfApartments; i++){\r\n            Apartment storage item = apartments[i];\r\n            allApartments[i] = item;\r\n        }\r\n\r\n        return allApartments;\r\n\r\n    }\r\n\r\n\r\n\r\n\r\n\r\n}",
  "sourcePath": "D:\\DEVOPS\\projets\\Blockchain\\final\\market-place\\web3\\contracts\\MarKetPlace.sol",
  "compiler": {
    "name": "solc",
    "version": "0.8.17+commit.8df45f5f.Emscripten.clang"
  },
  "schemaVersion": "3.4.11",
  "updatedAt": "2023-01-18T22:38:07.554Z",
  "networkType": "ethereum",
  "devdoc": {
    "kind": "dev",
    "methods": {},
    "version": 1
  },
  "userdoc": {
    "kind": "user",
    "methods": {},
    "version": 1
  }
}